:020000040800F2
:1000000000000320BD1B0008211A0008231A000865
:10001000251A0008271A0008291A00080000000005
:100020000000000000000000000000002B1A000883
:100030002D1A0008000000002F1A0008311A0008CD
:100040000D1C00080D1C00080D1C00080D1C0008EC
:100050000D1C00080D1C00080D1C00080D1C0008DC
:100060000D1C00080D1C00080D1C00080D1C0008CC
:100070000D1C00080D1C00080D1C00080D1C0008BC
:100080000D1C00080D1C00080D1C00080D1C0008AC
:100090000D1C00080D1C00080D1C00080D1C00089C
:1000A0000D1C00080D1C00080D1C00080D1C00088C
:1000B0000D1C00080D1C00080D1C00080D1C00087C
:1000C0000D1C00080D1C00080D1C00080D1C00086C
:1000D0000D1C00080D1C00080D1C00080D1C00085C
:1000E0000D1C00080D1C00080D1C00080D1C00084C
:1000F0000D1C00080D1C00080D1C00080D1C00083C
:100100000D1C00080D1C00080D1C00080D1C00082B
:100110000D1C00080D1C00080D1C00080D1C00081B
:100120000D1C00080D1C00080D1C00080D1C00080B
:100130000D1C00080D1C00080D1C00080D1C0008FB
:100140000D1C00080D1C00080D1C00080D1C0008EB
:100150000D1C00080D1C00080D1C0008391A0008B1
:100160000D1C00080D1C00080D1C00080D1C0008CB
:100170000D1C00080D1C00080D1C000800000000EC
:100180000D1C00080D1C00080D1C00080D1C0008AB
:100190000D1C00080D1C00080D1C00080D1C00089B
:0C01A00000000000000000000D1C000822
:1001C00010B5054C237833B9044B13B10448AFF391
:1001D00000800123237010BDD00900200000000022
:1001E00060AE000808B5034B1BB103490348AFF3E9
:1001F000008008BD00000000D409002060AE0008A7
:1002000081F0004102E000BF83F0004330B54FEAC7
:1002100041044FEA430594EA050F08BF90EA020F34
:100220001FBF54EA000C55EA020C7FEA645C7FEAC7
:10023000655C00F0E2804FEA5454D4EB5555B8BFEA
:100240006D420CDD2C4480EA020281EA030382EA5B
:10025000000083EA010180EA020281EA0303362DED
:1002600088BF30BD11F0004F4FEA01314FF4801CC0
:100270004CEA113102D0404261EB410113F0004FD2
:100280004FEA03334CEA133302D0524263EB430389
:1002900094EA050F00F0A780A4F10104D5F1200E27
:1002A0000DDB02FA0EFC22FA05F2801841F1000182
:1002B00003FA0EF2801843FA05F359410EE0A5F156
:1002C00020050EF1200E012A03FA0EFC28BF4CF087
:1002D000020C43FA05F3C01851EBE37101F000453D
:1002E00007D54FF0000EDCF1000C7EEB00006EEB4A
:1002F0000101B1F5801F1BD3B1F5001F0CD34908D4
:100300005FEA30004FEA3C0C04F101044FEA44522A
:1003100012F5800F80F09A80BCF1004F08BF5FEAB1
:10032000500C50F1000041EB045141EA050130BD91
:100330005FEA4C0C404141EB0101013C28BFB1F5A3
:10034000801FE9D291F0000F04BF01460020B1FAEE
:1003500081F308BF2033A3F10B03B3F120020CDAC1
:100360000C3208DD02F1140CC2F10C0201FA0CF09F
:1003700021FA02F10CE002F11402D8BFC2F1200C04
:1003800001FA02F120FA0CFCDCBF41EA0C019040BA
:10039000E41AA2BF01EB0451294330BD6FEA040403
:1003A0001F3C1CDA0C340EDC04F11404C4F12002EE
:1003B00020FA04F001FA02F340EA030021FA04F300
:1003C00045EA030130BDC4F10C04C4F1200220FA57
:1003D00002F001FA04F340EA0300294630BD21FA95
:1003E00004F0294630BD94F0000F83F4801306BF5B
:1003F00081F480110134013D4EE77FEA645C18BF4F
:100400007FEA655C29D094EA050F08BF90EA020FE5
:1004100005D054EA000C04BF1946104630BD91EADD
:10042000030F1EBF0021002030BD5FEA545C05D1E0
:100430004000494128BF41F0004130BD14F580041F
:100440003CBF01F5801130BD01F0004545F0FE4193
:1004500041F470014FF0000030BD7FEA645C1ABFC8
:10046000194610467FEA655C1CBF0B46024650EAFF
:10047000013406BF52EA033591EA030F41F400212B
:1004800030BD00BF90F0000F04BF0021704730B5B1
:100490004FF4806404F132044FF000054FF0000186
:1004A00050E700BF90F0000F04BF0021704730B547
:1004B0004FF4806404F1320410F0004548BF40421C
:1004C0004FF000013EE700BF42004FEAE2014FEA71
:1004D00031014FEA02701FBF12F07F4393F07F4F4C
:1004E00081F06051704732F07F4208BF704793F04F
:1004F0007F4F04BF41F40021704730B54FF4607462
:1005000001F0004521F000411CE700BF50EA010264
:1005100008BF704730B54FF000050AE050EA01020D
:1005200008BF704730B511F0004502D5404261EB7D
:1005300041014FF4806404F132045FEA915C3FF4BE
:10054000D8AE4FF003025FEADC0C18BF03325FEA5B
:10055000DC0C18BF033202EBDC02C2F1200300FA0C
:1005600003FC20FA02F001FA03FE40EA0E0021FA31
:1005700002F11444BDE600BF70B54FF0FF0C4CF41F
:10058000E06C1CEA11541DBF1CEA135594EA0C0FD1
:1005900095EA0C0F00F0DEF82C4481EA030621EA0C
:1005A0004C5123EA4C5350EA013518BF52EA033547
:1005B00041F4801143F4801338D0A0FB02CE4FF0F9
:1005C0000005E1FB02E506F00042E0FB03E54FF029
:1005D0000006E1FB03569CF0000F18BF4EF0010E21
:1005E000A4F1FF04B6F5007F64F5407404D25FEA1D
:1005F0004E0E6D4146EB060642EAC62141EA5551D0
:100600004FEAC52040EA5E504FEACE2EB4F1FD0C11
:1006100088BFBCF5E06F1ED8BEF1004F08BF5FEA8F
:10062000500E50F1000041EB045170BD06F0004641
:1006300046EA010140EA020081EA0301B4EB5C04EE
:10064000C2BFD4EB0C0541EA045170BD41F48011E6
:100650004FF0000E013C00F3AB8014F1360FDEBF0B
:10066000002001F0004170BDC4F10004203C35DAE7
:100670000C341BDC04F11404C4F1200500FA05F36A
:1006800020FA04F001FA05F240EA020001F000420B
:1006900021F0004110EBD37021FA04F642EB060181
:1006A0005EEA430E08BF20EAD37070BDC4F10C04AB
:1006B000C4F1200500FA04F320FA05F001FA04F26F
:1006C00040EA020001F0004110EBD37041F100015B
:1006D0005EEA430E08BF20EAD37070BDC4F1200566
:1006E00000FA05F24EEA020E20FA04F301FA05F2CE
:1006F00043EA020321FA04F001F0004121FA04F276
:1007000020EA020000EBD3705EEA430E08BF20EA45
:10071000D37070BD94F0000F0FD101F0004640007F
:1007200041EB010111F4801F08BF013CF7D041EA01
:10073000060195F0000F18BF704703F00046520005
:1007400043EB030313F4801F08BF013DF7D043EAD6
:100750000603704794EA0C0F0CEA135518BF95EA8C
:100760000C0F0CD050EA410618BF52EA4306D1D113
:1007700081EA030101F000414FF0000070BD50EA32
:10078000410606BF1046194652EA430619D094EABC
:100790000C0F02D150EA013613D195EA0C0F05D1A6
:1007A00052EA03361CBF104619460AD181EA0301FA
:1007B00001F0004141F0FE4141F470014FF00000B2
:1007C00070BD41F0FE4141F4780170BD70B54FF04D
:1007D000FF0C4CF4E06C1CEA11541DBF1CEA1355CD
:1007E00094EA0C0F95EA0C0F00F0A7F8A4EB0504AF
:1007F00081EA030E52EA03354FEA013100F08880A6
:100800004FEA03334FF0805545EA131343EA12636E
:100810004FEA022245EA111545EA10654FEA002623
:100820000EF000419D4208BF964244F1FD0404F5DC
:10083000407402D25B084FEA3202B61A65EB030538
:100840005B084FEA32024FF480104FF4002CB6EBF5
:10085000020E75EB030E22BFB61A754640EA0C0075
:100860005B084FEA3202B6EB020E75EB030E22BFB5
:10087000B61A754640EA5C005B084FEA3202B6EBF6
:10088000020E75EB030E22BFB61A754640EA9C00B5
:100890005B084FEA3202B6EB020E75EB030E22BF85
:1008A000B61A754640EADC0055EA060E18D04FEA43
:1008B000051545EA16754FEA06164FEAC30343EAE3
:1008C00052734FEAC2025FEA1C1CC0D111F4801FB0
:1008D0000BD141EA00014FF000004FF0004CB6E7A9
:1008E00011F4801F04BF01430020B4F1FD0C88BF48
:1008F000BCF5E06F3FF6AFAEB5EB030C04BFB6EB53
:10090000020C5FEA500C50F1000041EB045170BD45
:100910000EF0004E4EEA113114EB5C04C2BFD4EB72
:100920000C0541EA045170BD41F480114FF0000EF6
:10093000013C90E645EA060E8DE60CEA135594EA72
:100940000C0F08BF95EA0C0F3FF43BAF94EA0C0F75
:100950000AD150EA01347FF434AF95EA0C0F7FF4EA
:1009600025AF104619462CE795EA0C0F06D152EA3E
:1009700003353FF4FDAE1046194622E750EA410622
:1009800018BF52EA43067FF4C5AE50EA41047FF433
:100990000DAF52EA43057FF4EBAE12E74FEA410296
:1009A000B2F1E04324BFB3F5001CDCF1FE5C0DD9CD
:1009B00001F0004C4FEAC0024CEA5070B2F1004F17
:1009C00040EB830008BF20F00100704711F0804F1A
:1009D00021D113F13872BCBF01F00040704741F4DF
:1009E00080114FEA5252C2F11802C2F1200C10FAE3
:1009F0000CF320FA02F018BF40F001004FEAC123C7
:100A00004FEAD32303FA0CFC40EA0C0023FA02F36A
:100A10004FEA4303CCE77FEA625307D150EA013340
:100A20001EBF4FF0FE4040F44000704701F0004010
:100A300040F0FE4040F40000704700BF80F00040EE
:100A400002E000BF81F0004142001FBF5FEA4103A6
:100A500092EA030F7FEA226C7FEA236C6AD04FEAA6
:100A60001262D2EB1363C1BFD218414048404140EB
:100A7000B8BF5B42192B88BF704710F0004F40F49D
:100A8000000020F07F4018BF404211F0004F41F4B9
:100A9000000121F07F4118BF494292EA030F3FD085
:100AA000A2F1010241FA03FC10EB0C00C3F1200398
:100AB00001FA03F100F0004302D5494260EB400027
:100AC000B0F5000F13D3B0F1807F06D340084FEA92
:100AD000310102F10102FE2A51D2B1F1004F40EB87
:100AE000C25008BF20F0010040EA030070474900EF
:100AF00040EB0000013A28BFB0F5000FEDD2B0FA8C
:100B000080FCACF1080CB2EB0C0200FA0CF0AABFAE
:100B100000EBC25052421843BCBFD040184370474C
:100B200092F0000F81F4000106BF80F40000013252
:100B3000013BB5E74FEA41037FEA226C18BF7FEA29
:100B4000236C21D092EA030F04D092F0000F08BF6B
:100B50000846704790EA010F1CBF0020704712F052
:100B60007F4F04D1400028BF40F00040704712F191
:100B700000723CBF00F50000704700F0004343F0F6
:100B8000FE4040F4000070477FEA226216BF08462C
:100B90007FEA23630146420206BF5FEA412390EAEF
:100BA000010F40F4800070474FF0000304E000BFE5
:100BB00010F0004348BF40425FEA000C08BF704796
:100BC00043F0964301464FF000001CE050EA01025A
:100BD00008BF70474FF000030AE000BF50EA01026F
:100BE00008BF704711F0004302D5404261EB41015C
:100BF0005FEA010C02BF84460146002043F0B64381
:100C000008BFA3F18053A3F50003BCFA8CF2083AA5
:100C1000A3EBC25310DB01FA02FC634400FA02FCAE
:100C2000C2F12002BCF1004F20FA02F243EB0200B5
:100C300008BF20F00100704702F1200201FA02FC17
:100C4000C2F1200250EA4C0021FA02F243EB02000A
:100C500008BF20EADC7070474FF0FF0C1CEAD0524E
:100C60001EBF1CEAD15392EA0C0F93EA0C0F6FD00F
:100C70001A4480EA010C400218BF5FEA41211ED0ED
:100C80004FF0006343EA501043EA5111A0FB0131D9
:100C90000CF00040B1F5000F3EBF490041EAD371AE
:100CA0005B0040EA010062F17F02FD2A1DD8B3F12A
:100CB000004F40EBC25008BF20F00100704790F099
:100CC000000F0CF0004C08BF49024CEA502040EAEB
:100CD00051207F3AC2BFD2F1FF0340EAC2507047B1
:100CE00040F400004FF00003013A5DDC12F1190FEF
:100CF000DCBF00F000407047C2F10002410021FA61
:100D000002F1C2F1200200FA02FC5FEA310040F178
:100D1000000053EA4C0308BF20EADC70704792F0F1
:100D2000000F00F0004C02BF400010F4000F013A29
:100D3000F9D040EA0C0093F0000F01F0004C02BF24
:100D4000490011F4000F013BF9D041EA0C018FE793
:100D50000CEAD15392EA0C0F18BF93EA0C0F0AD099
:100D600030F0004C18BF31F0004CD8D180EA0100BF
:100D700000F00040704790F0000F17BF90F0004F58
:100D8000084691F0000F91F0004F14D092EA0C0F3A
:100D900001D142020FD193EA0C0F03D14B0218BFCD
:100DA000084608D180EA010000F0004040F0FE4013
:100DB00040F40000704740F0FE4040F440007047AF
:100DC0004FF0FF0C1CEAD0521EBF1CEAD15392EA2E
:100DD0000C0F93EA0C0F69D0A2EB030280EA010C1E
:100DE00049024FEA402037D04FF0805343EA1111B7
:100DF00043EA10130CF000408B4238BF5B0042F115
:100E00007D024FF4000C8B4224BF5B1A40EA0C00B9
:100E1000B3EB510F24BFA3EB510340EA5C00B3EBEB
:100E2000910F24BFA3EB910340EA9C00B3EBD10FD9
:100E300024BFA3EBD10340EADC001B0118BF5FEA2B
:100E40001C1CE0D1FD2A3FF650AF8B4240EBC25054
:100E500008BF20F0010070470CF0004C4CEA502015
:100E60007F32C2BFD2F1FF0340EAC250704740F464
:100E700000004FF00003013A37E792F0000F00F056
:100E8000004C02BF400010F4000F013AF9D040EAD4
:100E90000C0093F0000F01F0004C02BF490011F468
:100EA000000F013BF9D041EA0C0195E70CEAD15360
:100EB00092EA0C0F08D142027FF47DAF93EA0C0F47
:100EC0007FF470AF084676E793EA0C0F04D14B022B
:100ED0003FF44CAF08466EE730F0004C18BF31F0DD
:100EE000004CCAD130F000427FF45CAF31F00043D7
:100EF0007FF43CAF5FE700BF4FF0FF3C06E000BF70
:100F00004FF0010C02E000BF4FF0010C4DF804CD92
:100F10004FEA40024FEA41037FEA226C18BF7FEAA2
:100F2000236C11D001B052EA530C18BF90EA010FA4
:100F300058BFB2EB030088BFC81738BF6FEAE17033
:100F400018BF40F0010070477FEA226C02D15FEACF
:100F5000402C05D17FEA236CE4D15FEA412CE1D03B
:100F60005DF8040B704700BF844608466146FFE702
:100F70000FB5FFF7C9FF002848BF10F1000F0FBDE4
:100F80004DF808EDFFF7F4FF0CBF012000205DF8DD
:100F900008FB00BF4DF808EDFFF7EAFF34BF012062
:100FA00000205DF808FB00BF4DF808EDFFF7E0FFFB
:100FB00094BF012000205DF808FB00BF4DF808ED4C
:100FC000FFF7D2FF94BF012000205DF808FB00BFAF
:100FD0004DF808EDFFF7C8FF34BF012000205DF891
:100FE00008FB00BF53B94AB9002908BF00281CBF3D
:100FF0004FF0FF314FF0FF3000F074B9ADF1080C45
:101000006DE904CE00F006F8DDF804E0DDE9022326
:1010100004B070472DE9F047089E0D460446884607
:10102000002B4DD18A42944668D9B2FA82F252B16D
:1010300001FA02F3C2F1200120FA01F10CFA02FCDC
:1010400041EA030894404FEA1C45210CB8FBF5FE29
:101050001FFA8CF705FB1E8341EA03430EFB07F1E1
:1010600099420BD91CEB03030EF1FF3080F01E8177
:10107000994240F21B81AEF1020E63445B1AA4B2A6
:10108000B3FBF5F005FB103344EA034400FB07F71C
:10109000A7420AD91CEB040400F1FF3380F0088159
:1010A000A74240F2058164440238E41B40EA0E4046
:1010B00000211EB1D4400023C6E90043BDE8F087FB
:1010C0008B4208D9002E00F0EE800021C6E9000511
:1010D0000846BDE8F087B3FA83F100294AD1AB4254
:1010E00002D3824200F2F980841A65EB03030120E7
:1010F0009846002EE2D0C6E90048DFE702B9FFDEDD
:10110000B2FA82F2002A40F09180A1EB0C054FEA7E
:101110001C471FFA8CFE0121B5FBF7F307FB1350A8
:10112000250C45EA00450EFB03F0A84208D91CEB4C
:10113000050503F1FF3802D2A84200F2CB804346F6
:101140002D1AA4B2B5FBF7F007FB105544EA05448D
:101150000EFB00FEA64508D91CEB040400F1FF3588
:1011600002D2A64500F2BB802846A4EB0E0440EA5A
:1011700003409EE7C1F120078B4022FA07FC4CEAAE
:10118000030C20FA07F405FA01F31C43FD404FEA73
:101190001C4900FA01F3B5FBF9F8200C1FFA8CFE8C
:1011A00009FB185540EA054508FB0EF0A84202FA73
:1011B00001F20BD91CEB050508F1FF3A80F088809D
:1011C000A84240F28580A8F1020865442D1AA4B215
:1011D000B5FBF9F009FB105544EA054500FB0EFE8E
:1011E000AE4508D91CEB050500F1FF346CD2AE45C5
:1011F0006AD90238654440EA0840A0FB0294A5EB96
:101200000E05A542C846A64656D353D05EB1B3EBF1
:10121000080265EB0E0505FA07F722FA01F3CD4047
:101220001F43C6E900750021BDE8F087C2F1200325
:1012300020FA03F10CFA02FC25FA03F395400D4362
:101240004FEA1C471FFA8CFEB3FBF7F107FB113086
:101250002B0C43EA004301FB0EF0984204FA02F41F
:1012600008D91CEB030301F1FF382FD298422DD986
:10127000023963441B1AADB2B3FBF7F007FB10331E
:1012800045EA034500FB0EF3AB4208D91CEB05050C
:1012900000F1FF3816D2AB4214D902386544ED1A7A
:1012A00040EA014138E73146304607E78646E5E641
:1012B0001846FAE64B45A9D2B9EB020864EB0C0ECE
:1012C0000138A3E74046EAE7204694E74146D1E7E4
:1012D000D0467BE7023B654432E7084609E76444B1
:1012E000023842E7704700BF000000000000000025
:1012F00001F0FF01102A2BDB10F0070F08D010F8C7
:10130000013B013A8B422DD010F0070F42B3F6D1CA
:10131000F0B441EA012141EA014122F007047FF0E3
:1013200000070023F0E80256083C85EA010586EA3A
:10133000010685FA47F5A3FA87F586FA47F6A5FA76
:1013400087F68EB9EED1F0BC01F0FF0102F0070282
:1013500032B110F8013B013A83EA010313B1F8D12D
:101360000020704701387047002D06BF354603380E
:10137000073815F0010F07D1013015F4807F02BF47
:10138000013015F4C03F0130F0BC0138704700BF98
:10139000844641EA000313F003036DD1403A41D380
:1013A00051F8043B40F8043B51F8043B40F8043B3F
:1013B00051F8043B40F8043B51F8043B40F8043B2F
:1013C00051F8043B40F8043B51F8043B40F8043B1F
:1013D00051F8043B40F8043B51F8043B40F8043B0F
:1013E00051F8043B40F8043B51F8043B40F8043BFF
:1013F00051F8043B40F8043B51F8043B40F8043BEF
:1014000051F8043B40F8043B51F8043B40F8043BDE
:1014100051F8043B40F8043B51F8043B40F8043BCE
:10142000403ABDD2303211D351F8043B40F8043B6E
:1014300051F8043B40F8043B51F8043B40F8043BAE
:1014400051F8043B40F8043B103AEDD20C3205D37E
:1014500051F8043B40F8043B043AF9D2043208D076
:10146000D2071CBF11F8013B00F8013B01D30B88E8
:1014700003806046704700BF082A13D38B078DD0C6
:1014800010F003038AD0C3F10403D21ADB071CBF98
:1014900011F8013B00F8013B80D331F8023B20F802
:1014A000023B7BE7043AD9D3013A11F8013B00F83B
:1014B000013BF9D20B7803704B7843708B788370C3
:1014C00060467047000000000000000000000000BF
:1014D000000000000000000000000000000000000C
:1014E00000000000000000000000000000000000FC
:1014F00000000000000000000000000000000000EC
:1015000090F800F06DE9024520F007016FF0000C43
:1015100010F0070491F820F040F049804FF00004EB
:101520006FF00700D1E9002391F840F000F10800C6
:1015300082FA4CF2A4FA8CF283FA4CF3A2FA8CF3FE
:101540004BBBD1E9022382FA4CF200F10800A4FA65
:101550008CF283FA4CF3A2FA8CF3E3B9D1E90423B9
:1015600082FA4CF200F10800A4FA8CF283FA4CF3F0
:10157000A2FA8CF37BB9D1E9062301F1200182FAAA
:101580004CF200F10800A4FA8CF283FA4CF3A2FAB0
:101590008CF3002BC6D0002A04BF04301A4612BABE
:1015A000B2FA82F2FDE8024500EBD2007047D1E9C1
:1015B000002304F00305C4F100004FEAC50514F050
:1015C000040F91F840F00CFA05F562EA05021CBF21
:1015D00063EA050362464FF00004A9E74FF0FF3CC1
:1015E00006E000BF4FF0010C02E000BF4FF0010C1D
:1015F0004DF804CD4FEA410C7FEA6C5C4FEA430C96
:1016000018BF7FEA6C5C1BD001B050EA410C0CBFE4
:1016100052EA430C91EA030F02BF90EA020F002046
:10162000704710F1000F91EA030F58BF994208BFAD
:1016300090422CBFD8176FEAE37040F0010070476A
:101640004FEA410C7FEA6C5C02D150EA013C07D1C1
:101650004FEA430C7FEA6C5CD6D152EA033CD3D00C
:101660005DF8040B704700BF8446104662468C4606
:101670001946634600E000BF01B5FFF7B7FF002839
:1016800048BF10F1000F01BD4DF808EDFFF7F4FF62
:101690000CBF012000205DF808FB00BF4DF808EDED
:1016A000FFF7EAFF34BF012000205DF808FB00BF10
:1016B0004DF808EDFFF7E0FF94BF012000205DF832
:1016C00008FB00BF4DF808EDFFF7CEFF94BF0120E7
:1016D00000205DF808FB00BF4DF808EDFFF7C4FFE0
:1016E00034BF012000205DF808FB00BF4FEA410C29
:1016F0007FEA6C5C02D150EA013C0AD14FEA430C0C
:101700007FEA6C5C02D152EA033C02D14FF0000048
:1017100070474FF0010070474FEA410212F5001286
:1017200015D211D56FF47873B3EB625212D94FEA28
:10173000C12343F0004343EA505311F0004F23FA12
:1017400002F018BF404270474FF00000704750EA67
:10175000013005D111F0004008BF6FF00040704724
:101760004FF00000704700BF30B58BB000240594E7
:10177000069407940894099401941D4B1A6B42F047
:1017800040021A631A6B02F040020192019A02941D
:101790001A6B42F001021A631A6B02F00102029204
:1017A000029A03941A6B42F080021A631A6B02F0D9
:1017B00080020392039A04941A6B42F020021A6387
:1017C0001B6B03F020030493049B0A4D2246402127
:1017D000284601F099F940230593012306930794C5
:1017E000089405A9284601F091F80BB030BD00BF60
:1017F000003802400014024072B6FEE700B595B012
:101800003022002108A802F033FE00230393049342
:101810000593069307930193234A116C41F080517D
:101820001164126C02F080520192019A02931F4BD4
:101830001A6842F440421A601B6803F44043029362
:10184000029B012308934FF48033099302230E93E4
:101850004FF480020F9206221092B422119212933A
:101860000423139308A801F093F9B0B901F052F9D9
:10187000A8B90F23039302230493002305934FF485
:10188000A05306934FF480530793052103A801F05A
:10189000CDFB30B915B05DF804FBFFF7ADFFFFF7E6
:1018A000ABFFFFF7A9FF00BF003802400070004007
:1018B00080B584B000F020FFFFF7A0FFFFF754FFD2
:1018C00000F036F800F020F902F010FD02F0F2FB13
:1018D000052000F03DFF124BDF6AD3F83080986A94
:1018E000FEF7F2FD04460D460E4E4046FEF7ECFDB7
:1018F000CDE902013846FEF7E7FDCDE900012246B9
:101900002B460949304602F005FE372340F22B12E0
:101910003146064801F0E7FF052000F019FFD5E742
:10192000E40B0020EC09002078AE0008740B0020C6
:1019300008B50F480F4B03604FF4827343600023D8
:101940008360C36002220261012242614FF400728F
:1019500082613022C2610362436283620A23C362EE
:1019600001F0E4FC00B908BDFFF746FFFBE700BF4C
:10197000180B00200050014000B589B000230393EC
:1019800004930593069307930268154B9A4202D07D
:1019900009B05DF804FB0021019103F568435A6C1E
:1019A00042F480125A645A6C02F480120192019A35
:1019B00002911A6B42F020021A631B6B03F02003A2
:1019C0000293029B4FF46073039302230493032357
:1019D00006930523079303A9024800F097FFD7E772
:1019E000005001400014024082B0002100910B4BD6
:1019F0005A6C42F480425A645A6C02F4804200925B
:101A0000009A01911A6C42F080521A641B6C03F028
:101A100080530193019B02B0704700BF0038024021
:101A2000FEE7FEE7FEE7FEE7FEE770477047704718
:101A300008B500F07BFE08BD08B5024802F046F884
:101A400008BD00BF740B00200120704708B502F0EC
:101A5000E5FC162303604FF0FF3008BD08B54FF0DA
:101A6000FF31FFF7F3FFFEE770B50C461646002581
:101A700006E0AFF30080214601F8010B01350C466A
:101A8000B542F6DB304670BD70B50C4616460025F3
:101A900004E014F8010BAFF300800135B542F8DB28
:101AA000304670BD4FF0FF3070474FF400534B602D
:101AB00000207047012070470020704710B5034692
:101AC0000C4A0D490D48006840B10C4800680344B9
:101AD000521A934206D8094A136010BD0748084CB1
:101AE0000460F2E702F09AFC0C2303604FF0FF3031
:101AF000F3E700BF0000032000040000700B00208B
:101B0000B80C00207047000008B50A480A4B036073
:101B10004FF4E133436000238360C36003610C2210
:101B200042618361C36101F0AEFE00B908BDFFF7F9
:101B300063FEFBE7740B00200014014010B588B071
:101B40000023039304930593069307930268194BAC
:101B50009A4201D008B010BD0024019403F59233DD
:101B60005A6C42F020025A645A6C02F02002019230
:101B7000019A02941A6B42F040021A631B6B03F045
:101B800040030293029B4FF4844303930223049384
:101B9000032306930823079303A9074800F0B6FE22
:101BA00022462146472000F0F9FD472000F02EFE96
:101BB000D0E700BF0014014000180240DFF834D025
:101BC000FFF7A0FF0C480D490D4A002302E0D4584E
:101BD000C4500433C4188C42F9D30A4A0A4C002377
:101BE00001E013600432A242FBD302F01DFCFFF7B8
:101BF0005FFE70470000032000000020D009002095
:101C000044B30008D0090020B80C0020FEE7000013
:101C10002DE9F04F97B00C9003910D921C46DDF822
:101C20008090DDF88480229F239E249D00F08AFD11
:101C3000DFF8C4A2CAF80000DAF80000DFF8BCB28E
:101C4000DBF80030C01AFEF7AFFFAD49FFF7B8F878
:101C50001090DAF80030CBF8003021462046FEF72D
:101C6000FBFF824649464846FEF7F6FF01465046CE
:101C7000FEF7EAFE824641464046FEF7EDFF01468A
:101C80005046FEF7E1FEFEF71FFC08F057FBFEF79B
:101C900085FE824601462046FFF792F8069051469F
:101CA0004846FFF78DF8079051464046FFF788F801
:101CB000119039463846FEF7CFFF0446314630468C
:101CC000FEF7CAFF01462046FEF7BEFE044629463F
:101CD0002846FEF7C1FF01462046FEF7B5FEFEF797
:101CE000F3FB08F02BFBFEF759FE0446014638468D
:101CF000FFF766F8074621463046FFF761F8049083
:101D000021462846FFF75CF8059039461297384679
:101D1000FEF79AFE0890FEF7D7FB80468946794C7D
:101D200020682168FEF798FFFEF7CEFB02460B46BF
:101D300000207549FEF768FA06460F46734D28687D
:101D40002968FEF789FFFEF7BFFB02460B463046C7
:101D50003946FEF759FA02460B4640464946FEF719
:101D60000BFC82468B46049B19461846FEF76CFE18
:101D70008146674E30682168FEF76EFF8046654FEA
:101D800038682968FEF768FF01464046FEF75AFEAC
:101D900001464846FEF760FFFEF796FB02460B46FB
:101DA00050465946FEF732FACDE90A01DDF814B083
:101DB00059465846FEF748FE824630682968FEF7C5
:101DC0004BFF804638682168FEF746FF01464046D3
:101DD000FEF73AFE01465046FEF73EFFFEF774FB63
:101DE00002460B46DDE90A01FEF710FAFEF7D6FDC2
:101DF000139030682168FEF72FFF80463868296805
:101E0000FEF72AFF01464046FEF71EFE01460898EF
:101E1000FEF722FFFEF758FBCDE90A014846FEF720
:101E200053FBCDE90E0130683168FEF715FFFEF770
:101E30004BFB02460B4600203349FEF7E5F9CDE99E
:101E4000140128682968FEF707FFFEF73DFB0246EC
:101E50000B46DDE91401FEF7D7F902460B46DDE932
:101E60000E01FEF789FB02460B46DDE90A01FEF78B
:101E7000CDF9CDE90A0120682968FEF7EDFE80461C
:101E800038683168FEF7E8FE01464046FEF7DAFDA5
:101E900001465046FEF7E0FEFEF716FB02460B46F3
:101EA000DDE90A01FEF7B2F9FEF778FD83463068F6
:101EB0002968FEF7D1FE804638682168FEF7CCFE1F
:101EC00001464046FEF7BEFD01460898FEF7C4FEF7
:101ED000804620682968FEF7BFFE089038683168A0
:101EE000FEF7BAFE01460898FEF7AEFD01464846E9
:101EF000FEF7B2FE01460FE0CC0B0020C80B00201D
:101F00000000FA44D40B00200000E03FD80B002072
:101F1000D00B0020040000204046FEF795FDFEF7A0
:101F2000D3FACDE908015046FEF7CEFACDE90A0111
:101F300030683168FEF790FEFEF7C6FA02460B469F
:101F40000020B249FEF760F9804689462068216882
:101F5000FEF782FEFEF7B8FA02460B4640464946B7
:101F6000FEF752F902460B46DDE90A01FEF704FBD3
:101F700002460B46DDE90801FEF748F9FEF70EFDC3
:101F80008246DDF84CC061466046FEF765FE80463D
:101F900059465846FEF760FE01464046FEF754FD9E
:101FA000FEF792FA08F0CAF9FEF7F8FC0146FEF7D0
:101FB0004BFD8346FEF788FACDE9080120682168C9
:101FC000FEF74AFEFEF780FA02460B4600208F49D4
:101FD000FEF71AF98046894628682968FEF73CFE14
:101FE000FEF772FA02460B4640464946FEF70CF9E8
:101FF00002460B46DDE90801FEF7BEFACDE908010D
:1020000051465046FEF720FD804630682968FEF7AD
:1020100023FE814638682168FEF71EFE01464846C9
:10202000FEF710FD01464046FEF716FEFEF74CFA9D
:1020300002460B46DDE90801FEF7E8F8FEF7AEFCC4
:10204000089030682168FEF707FE814638682968E5
:10205000FEF702FE01464846FEF7F4FC01465846EC
:10206000FEF7FAFD814638683168FEF7F5FD8246D5
:1020700020682968FEF7F0FD01465046FEF7E4FCB3
:1020800001464046FEF7E8FD01464846FEF7DCFC07
:102090000A9038682168FEF7DFFD814630682968BC
:1020A000FEF7DAFD01464846FEF7CEFC01465846EB
:1020B000FEF7D2FDFEF708FACDE90E014046FEF725
:1020C00003FA82468B4630683168FEF7C5FDFEF79D
:1020D000FBF902460B4600204C49FEF795F8804676
:1020E000894620682168FEF7B7FDFEF7EDF9024644
:1020F0000B4640464946FEF787F802460B465046D7
:102100005946FEF739FA02460B46DDE90E01FEF7A5
:102110007DF8FEF743FC824630682968FEF79CFD97
:10212000804638682168FEF797FD01464046FEF775
:1021300089FC0146FEF788FC804638683168FEF766
:102140008BFD814620682968FEF786FD01464846DA
:10215000FEF77AFC0146FEF777FC8146386839685D
:10216000FEF77AFD074630683168FEF775FD0146D7
:102170003846FEF767FC064620682168FEF76CFDCE
:1021800001463046FEF75EFC044628682968FEF7E3
:1021900063FD01462046FEF757FC044601460798BA
:1021A000FEF75AFD05464946119F3846FEF754FD95
:1021B00001462846FEF746FC054651460498FEF7C0
:1021C0004BFD06460A99DDF814B05846FEF744FD6B
:1021D00001463046FEF736FC01462846FEF734FC41
:1021E000054641463846FEF737FD06462146069825
:1021F000FEF732FD01463046FEF724FC04460899FE
:102200005846FEF729FD064602E000BF0000E03F09
:102210005146129F3846FEF71FFD01463046FEF735
:1022200011FC01462046FEF70FFC0446494606987D
:10223000FEF712FD064641460798FEF70DFD0146E2
:102240003046FEF7FFFB06460A993846FEF704FDC6
:10225000074608990498FEF7FFFC01463846FEF74A
:10226000F1FB01463046FEF7EFFB0646002128460B
:10227000FEF786FE002859D100212046FEF780FE99
:10228000002853D100213046FEF77AFE00284DD1B8
:10229000AF492846FEF7E0FC109F3946FEF7DCFC0C
:1022A000DFF8B092D9F80010FEF7CEFBC9F80000B5
:1022B000A7492046FEF7D0FC3946FEF7CDFCDFF8F3
:1022C0009882D8F80010FEF7BFFBC8F80000A049BC
:1022D0003046FEF7C1FC3946FEF7BEFC9F4F396819
:1022E000FEF7B2FB38609E492846FEF7B5FC0C9914
:1022F000FEF7AAFBD9F80010FEF7A6FB0C90984950
:102300002046FEF7A9FC0399FEF79EFBD8F80010C3
:10231000FEF79AFB039092493046FEF79DFC0D991B
:10232000FEF792FB3968FEF78FFB0D908D4E3068FB
:1023300000F10040DDF830A05146FEF78DFC044668
:10234000894D28680399FEF787FC01462046FEF771
:1023500079FB0746854C2068DDF834B05946FEF716
:102360007BFC01463846FEF76DFBDDF840904946A0
:10237000FEF772FC7E4F3968FEF766FB38603868FE
:102380005146FEF769FC804628685946FEF764FC12
:1023900001464046FEF758FB804620680399FEF749
:1023A0005BFC01464046FEF74DFB4946FEF754FCF8
:1023B0003168FEF749FB306038680399FEF74CFC42
:1023C000804630685946FEF747FC01464046FEF716
:1023D00039FB804620685146FEF73EFC01464046E8
:1023E000FEF732FB4946FEF737FC2968FEF72CFB67
:1023F000286038685946FEF72FFC804630680399FC
:10240000FEF72AFC01464046FEF71EFB8046286880
:102410005146FEF721FC01464046FEF713FB4946B4
:10242000FEF71AFC2168FEF70FFB20603868396858
:10243000FEF712FC804630683168FEF70DFC01465D
:102440004046FEF701FB804628682968FEF704FC39
:1024500001464046FEF7F8FA804620682168FEF7FC
:10246000FBFB01464046FEF7EFFAFEF72DF807F0BA
:1024700065FFFEF793FA804638684146FEF7A0FCF8
:10248000386030684146FEF79BFC30602868414662
:10249000FEF796FC286020684146FEF791FC20601C
:1024A00028680146FEF7D0FA2168FEF7D5FB804682
:1024B00038680146FEF7C8FA3168FEF7CDFB0146E1
:1024C0004046FEF7C1FAFDF7FFFF07F00DFF1EA320
:1024D000D3E90023FEF750F8FEF760FADFF894A086
:1024E000CAF82C0030684FF04041FEF7B5FB216878
:1024F000FEF7B2FB804638680146FEF7A5FA296868
:10250000FEF7AAFB01464046FEF79EFA834638686E
:102510003968FEF7A1FB804630683168FEF79CFB06
:1025200001464046FEF78EFA804628682968FEF785
:1025300093FB01464046FEF785FA804620682168F5
:10254000FEF78AFB014617E06666666666A64C40A3
:102550000AD7A33BBC0B0020C00B0020C40B0020FB
:102560006666C63FD00B0020D40B0020D80B00209D
:1025700004000020E40B00204046FEF765FAFDF75A
:10258000A3FF804689465846FDF79EFF42464B46CC
:1025900007F0D2FE40A3D3E90023FDF7EDFFFEF7DD
:1025A000FDF9CAF8280030682968FEF755FB804617
:1025B00038682168FEF750FB01464046FEF742FAB4
:1025C0000146FEF741FA804638683968FEF744FB59
:1025D000074630683168FEF73FFB01463846FEF794
:1025E00031FA064628682968FEF736FB0146304670
:1025F000FEF72AFA054620682168FEF72DFB014602
:102600002846FEF71FFAFDF75FFF04460D464046D9
:10261000FDF75AFF22462B4607F08EFE1EA3D3E994
:102620000023FDF7A9FFFEF7B9F9CAF8300000242E
:102630001D4DDAF82C00FDF747FF19A7D7E9006711
:10264000CDE9006722462B4601F0A0FEFEF7A6F971
:10265000CAF83800DAF82800FDF736FFCDE9006740
:1026600022462B4601F092FEFEF798F9CAF8340094
:10267000DAF83000FDF728FFCDE9006722462B4647
:1026800001F084FEFEF78AF9CAF83C0017B0BDE8F5
:10269000F08F00BFAFF300806666666666A64C40AA
:1026A0009A9999999999A93F0000244010B5044638
:1026B0000E4B18784FF47A73B3FBF0F30C4A1068A2
:1026C000B0FBF3F000F0B0F868B90F2C01D901208D
:1026D0000AE0002221464FF0FF3000F05FF8054B82
:1026E0001C60002000E0012010BD00BF0800002099
:1026F000000000200C00002008B50B4B1A6842F4C3
:1027000000721A601A6842F480621A601A6842F411
:1027100080721A60032000F02FF80F20FFF7C6FF29
:10272000FFF762F9002008BD003C0240034A11682F
:10273000034B1B780B441360704700BFDC0B002079
:1027400008000020014B1868704700BFDC0B002018
:1027500038B50446FFF7F6FF0546B4F1FF3F02D057
:10276000044B1B781C44FFF7EDFF401BA042FAD33B
:1027700038BD00BF08000020074AD36823F4E06397
:102780001B041B0C000200F4E060034343F0BF6332
:1027900043F40033D360704700ED00E000B5194BFF
:1027A000DB68C3F30223C3F1070CBCF1040F28BF9D
:1027B0004FF0040C03F1040EBEF1060F18D9033BD1
:1027C0004FF0FF3E0EFA0CFC21EA0C0199400EFA84
:1027D00003F322EA0303194300280BDB0901C9B202
:1027E00000F1604000F5614080F800135DF804FBE3
:1027F0000023E5E700F00F000901C9B2024B1954AC
:10280000F4E700BF00ED00E014ED00E0002807DB76
:1028100000F01F02400901239340024A42F8203091
:10282000704700BF00E100E00138B0F1807F0BD2BB
:102830004FF0E0235861054AF02182F82310002070
:10284000986107221A6170470120704700ED00E08F
:1028500070B50446866DFFF775FF94F83530DBB22E
:10286000022B06D080236365002384F834300120D6
:1028700070BD05462268136823F0160313602268B2
:10288000536923F080035361236CE3B1226813681A
:1028900023F0080313602268136823F00103136018
:1028A00023681B6813F0010F11D0FFF74BFF431B88
:1028B000052BF5D920236365032084F83500002318
:1028C00084F83430D4E7A36C002BDFD1E3E7E26D6A
:1028D0003F239340B360012384F83530002084F80F
:1028E0003400C5E790F83530DBB2022B03D08023EB
:1028F000436501207047052380F83530026813686E
:1029000023F00103136000207047000000230F2B09
:1029100000F2F18070B582B061E085685E0003244A
:10292000B44025EA0405CC68B4402C438460456873
:1029300025EA02054C68C4F300129A402A4342601B
:102940005BE0DC08083450F8246003F007029500CF
:102950000F22AA4026EA020E0A69AA4042EA0E02A3
:1029600040F824205DE0092200E0002202FA0EF285
:102970002A430234604D45F82420604A94686FEA87
:102980000C0224EA0C054E6816F4801F01D04CEAB4
:1029900004055A4CA560E46802EA04054E6816F482
:1029A000001F01D04CEA0405544CE560646802EA5B
:1029B00004054E6816F4003F01D04CEA04054F4C64
:1029C0006560246822404D6815F4803F01D04CEAD0
:1029D00004024A4C226001330F2B00F28A8001224C
:1029E0009A400C6804EA020C32EA0404F3D14C6801
:1029F00004F00304013C012C8FD94A6802F0030261
:102A0000032A09D0C4685D000322AA4024EA020414
:102A10008A68AA402243C2604A6802F00302022A7E
:102A20008FD004684FEA430E032202FA0EF224EA22
:102A300002044A6802F0030202FA0EF22243026024
:102A40004A6812F4403FC6D0002201922C4A546CCE
:102A500044F480445464526C02F480420192019A1E
:102A60009C08A51C244A52F8255003F003024FEAA3
:102A7000820E0F2202FA0EF225EA0205214A904246
:102A80003FF473AF02F58062904222D002F580627B
:102A9000904220D002F5806290421ED002F5806202
:102AA00090421CD002F5806290421AD002F58062FA
:102AB000904218D002F58062904216D002F58062F2
:102AC000904214D002F5806290423FF44CAF0A224B
:102AD0004CE701224AE7022248E7032246E70422A4
:102AE00044E7052242E7062240E707223EE70822A4
:102AF0003CE702B070BD704700380140003C014027
:102B000000380240000002400AB1816170470904A8
:102B10008161704710B582B000230193194B1A6C84
:102B200042F080521A641B6C03F080530193019BA6
:102B3000154B01221A64FFF705FE0446134B5B6830
:102B400013F4803F08D1FFF7FDFD001BB0F57A7F3D
:102B5000F4D9032002B010BD0B4B01225A64FFF7D9
:102B6000F1FD0446094B5B6813F4003F07D1FFF702
:102B7000E9FD001BB0F57A7FF4D90320EAE70020D5
:102B8000E8E700BF0038024000000E42007000403D
:102B9000002800F0E08170B582B00446036813F0AD
:102BA000010F3BD09F4B9B6803F00C03042B2CD0F0
:102BB0009C4B9B6803F00C03082B21D06368B3F592
:102BC000803F4FD0B3F5A02F52D0964B1A6822F415
:102BD00080321A601A6822F480221A606368002B1F
:102BE00050D0FFF7AFFD05468E4B1B6813F4003F36
:102BF00014D1FFF7A7FD401B6428F5D90320B1E1EC
:102C0000884B5B6813F4800FD8D0864B1B6813F495
:102C1000003F03D06368002B00F09F81236813F00E
:102C2000020F54D07F4B9B6813F00C0F3ED07D4BAE
:102C30009B6803F00C03082B33D0E368002B68D0AB
:102C4000794B01221A60FFF77DFD0546754B1B6825
:102C500013F0020F54D1FFF775FD401B0228F5D980
:102C600003207FE16F4A136843F480331360B5E7B4
:102C70006C4B1A6842F480221A601A6842F480325F
:102C80001A60ABE7FFF75EFD0546664B1B6813F461
:102C9000003FC3D0FFF756FD401B6428F5D9032041
:102CA00060E1604B5B6813F4800FC6D15D4B1B681D
:102CB00013F0020F03D0E368012B40F05081594A12
:102CC000136823F0F803216943EAC1031360236802
:102CD00013F0080F42D063696BB3534B0122C3F862
:102CE000802EFFF72FFD05464E4B5B6F13F0020F52
:102CF00034D1FFF727FD401B0228F5D9032031E12D
:102D0000484A136823F0F803216943EAC1031360BA
:102D1000DDE7454B00221A60FFF714FD0546414BE5
:102D20001B6813F0020FD2D0FFF70CFD401B0228E6
:102D3000F5D9032016E13C4B0022C3F8802EFFF7A3
:102D400001FD0546374B5B6F13F0020F06D0FFF70E
:102D5000F9FC401B0228F5D9032003E1236813F096
:102D6000040F77D02F4B1B6C13F0805F33D10023FF
:102D700001932C4B1A6C42F080521A641B6C03F0C6
:102D800080530193019B0125284B1B6813F4807F1E
:102D900023D0A368012B34D0052B38D0214B1A6FD8
:102DA00022F001021A671A6F22F004021A67A36860
:102DB000002B3DD0FFF7C6FC06461A4B1B6F13F0E5
:102DC000020F46D1FFF7BEFC801B41F288339842C8
:102DD000F3D90320C6E00025D6E7144A136843F46C
:102DE00080731360FFF7AEFC0646104B1B6813F4AC
:102DF000807FCED1FFF7A6FC801B0228F5D90320E7
:102E0000B0E0084A136F43F001031367CFE7054BA7
:102E10001A6F42F004021A671A6F42F001021A6731
:102E2000C5E700BF00380240000047420070004084
:102E3000FFF788FC0646524B1B6F13F0020F08D0B9
:102E4000FFF780FC801B41F288339842F3D90320BE
:102E500088E0EDB9A369002B00F08380484A9268AE
:102E600002F00C02082A51D0022B17D0454B002249
:102E70001A66FFF767FC0446414B1B6813F0007F9E
:102E800042D0FFF75FFC001B0228F5D9032069E060
:102E90003B4A136C23F080531364DBE7394B002269
:102EA0001A66FFF74FFC0546354B1B6813F0007F91
:102EB00006D0FFF747FC401B0228F5D9032051E05C
:102EC000E369226A1343626A43EA8213A26A5208E0
:102ED000013A43EA0243E26A43EA0263284A536042
:102EE000284B01221A66FFF72DFC0446244B1B6871
:102EF00013F0007F06D1FFF725FC001B0228F5D94F
:102F000003202FE000202DE000202BE0012B2BD010
:102F10001B4B5B6803F48001E269914226D103F008
:102F20003F02216A8A4223D1616A47F6C0721A4081
:102F3000B2EB811F1ED103F44031A26A5208013A5C
:102F4000B1EB024F18D103F07063E26AB3EB026F8A
:102F500014D1002006E001207047012002E001208A
:102F600000E0002002B070BD0120FBE70120F9E77E
:102F70000120F7E70120F5E70120F3E70120F1E761
:102F8000003802400000474208B5254B9B6803F01B
:102F90000C03042B3FD0082B3FD1214B5A6802F081
:102FA0003F025B6813F4800F12D01D4B5968C1F3C8
:102FB00088111C480023A1FB0001FEF713F8184BF1
:102FC0005B68C3F3014301335B00B0FBF3F025E022
:102FD000134B5968C1F3881C4FEA4C11B1EB0C003C
:102FE0006EEB0E0E4FEA8E1343EA90638101091ACD
:102FF00063EB0E03DB0043EA5173C90011EB0C0CC9
:1030000043F10003990200234FEA8C2041EA9C51CE
:10301000FDF7E8FFD3E7034800E0034808BD00BF21
:1030200000380240001BB7000024F400002800F024
:103030009B8070B50D4604464F4B1B6803F00F0391
:103040008B4208D2CBB24C4A1370136803F00F03C3
:103050008B4240F08B80236813F0020F17D013F0DF
:10306000040F04D0454A936843F4E0539360236807
:1030700013F0080F04D0414A936843F4604393600F
:103080003E4A936823F0F003A1680B4393602368E2
:1030900013F0010F32D06368012B21D09A1E012A50
:1030A00025D9364A126812F0020F61D033498A6876
:1030B00022F0030213438B60FFF744FB06462F4BBD
:1030C0009B6803F00C036268B3EB820F16D0FFF726
:1030D00039FB801B41F288339842F0D9032042E04B
:1030E000264A126812F4003FE0D101203BE0234A57
:1030F000126812F0007FD9D1012034E01E4B1B680A
:1031000003F00F03AB4207D9EAB21B4B1A701B68DE
:1031100003F00F03AB422DD1236813F0040F06D048
:10312000164A936823F4E053E1680B4393602368E5
:1031300013F0080F07D0114A936823F46043216904
:1031400043EAC1039360FFF71FFF0C4B9B68C3F377
:1031500003130B4AD35CD8400A4B18600A4B18681B
:10316000FFF7A4FA002070BD012070470120FAE7A4
:103170000120F8E70120F6E7003C02400038024059
:10318000A8AE0008000000200C000020014B1868C9
:10319000704700BF0000002008B5FFF7F7FF044BA1
:1031A0009B68C3F38223034AD35CD84008BD00BFA9
:1031B00000380240B8AE000808B5FFF7E7FF044B3F
:1031C0009B68C3F34233034AD35CD84008BD00BFB9
:1031D00000380240B8AE00082DE9F04782B005463D
:1031E000884617461E46FFF7ADFA0A9B1B1A03EBEB
:1031F0000609FFF7A7FA82462B4B1B68C3F3CB33B4
:1032000009FB03F301932B689C6838EA04030CBFA5
:103210004FF0010C4FF0000CBC4540D0B6F1FF3F21
:10322000F1D0FFF78FFAA0EB0A0048450AD2B9F1B6
:10323000000F07D0019A02B14A46019B013B01935E
:103240009146E0E72A68536823F0E00353606B6817
:10325000B3F5827F0BD0AB6AB3F5005F14D00123C6
:1032600085F85130002385F85030032018E0AB6812
:10327000B3F5004F02D0B3F5806FECD12A68136824
:1032800023F040031360E6E72A68136823F4005331
:1032900013602A68136843F400531360DFE70020CB
:1032A00002B0BDE8F08700BF0000002070B584B018
:1032B00004460D46164600920B4601220221FFF7F6
:1032C0008BFFD0B9174B1B68174AA2FB03235B0D7A
:1032D0004FF47A7202FB03F303936368B3F5827FC2
:1032E00011D0039B3BB1039B013B039323689B6875
:1032F00013F0800FF5D104B070BD636D43F020036F
:1033000063650320F7E700962B46002280212046C4
:10331000FFF762FF0028EED0636D43F02003636582
:103320000320E8E700000020819F5E1600285AD0A5
:1033300010B50446436A33B94368B3F5827F05D0BC
:103340000023C36102E00023036143610023A36201
:1033500094F85130002B40D0022384F85130226879
:10336000136823F040031360636803F48273A26858
:1033700002F404421343E26802F400621343226938
:1033800002F002021343626902F001021343A269D0
:1033900002F400721343E26902F038021343226A16
:1033A00002F080021343A26A02F400522168134320
:1033B0000B60638B03F00403626A02F01002216861
:1033C00013434B602268D36923F40063D361002068
:1033D0006065012384F8513010BD84F850302046D8
:1033E000FEF7CAFAB8E7012070472DE9F04383B031
:1033F0001F460A9D90F85030012B00F016810446BC
:1034000088469146012380F85030FFF79BF9064625
:1034100094F85130DBB26268012B0AD0B2F5827F9A
:1034200040F0F080A268002A40F0F380042B40F0C6
:10343000F280B8F1000F00F0F080B9F1000F00F059
:10344000EE80002F00F0ED8094F85130DBB2042BB9
:1034500002D0052384F8513000236365C4F8389006
:10346000E787A787C4F83080E786A786236463646C
:1034700023681A6812F0400F03D11A6842F0400224
:103480001A60E368B3F5006F11D063680BB1012FC8
:103490000BD1226B236812781A73236B01332363D9
:1034A000E38E9BB2013B9BB2E38601276EE063682B
:1034B0000BB1012F0BD1226B23681288DA60236BCA
:1034C00002332363E38E9BB2013B9BB2E386012769
:1034D0001BE023689A6812F0010F0ED0E28F92B2BF
:1034E0005AB1DA68A36B1A80A36B0233A363E38F2C
:1034F0009BB2013B9BB2E3870127FFF723F9801BB7
:10350000A84202D3B5F1FF3F1ED1E38E9BB21BB997
:10351000E38F9BB2002B5CD023689A6812F0020FF5
:10352000D7D0E28E92B2002AD3D0002FD1D0226B16
:103530001288DA60236B02332363E38E9BB2013B74
:103540009BB2E3860027C4E7012384F851300320AF
:1035500059E023689A6812F0010F0ED0E28F92B200
:103560005AB1DA68A36B1A70A36B0133A363E38FBC
:103570009BB2013B9BB2E3870127FFF7E3F8831B74
:10358000AB4202D3B5F1FF3F1ED1EDB1E38E9BB24A
:1035900013B9E38F9BB2E3B123689A6812F0020F6C
:1035A000D7D0E28E92B2002AD3D0002FD1D0226B96
:1035B00012781A73236B01332363E38E9BB2013BB2
:1035C0009BB2E3860027C4E7012384F8513003202F
:1035D00019E0324629462046FFF768FE70B9A36815
:1035E00033B901932368DA6801929B680193019BC8
:1035F000636DC3B9012384F8513004E0202363656F
:10360000012000E00220002384F8503003B0BDE820
:10361000F0830220F7E70220F5E70120F3E701201D
:10362000F1E70120EFE70120EDE70220EEE7026875
:1036300002F10C0353E8003F23F490730C3242E88C
:1036400000310029F3D1026802F1140353E8003F6E
:1036500023F00103143242E800310029F3D1036B57
:10366000012B05D0202380F84230002303637047EC
:10367000026802F10C0353E8003F23F010030C3200
:1036800042E800310029F3D1ECE790F84130DBB299
:10369000212B01D0022070478368B3F5805F17D0DB
:1036A000036A5A1C02621A7803685A60C38C9BB280
:1036B000013B9BB2C3844BB90268D36823F08003FB
:1036C000D3600268D36843F04003D36000207047A2
:1036D0000369002BE4D1036A1B880268C3F3080363
:1036E0005360036A02330362E0E7000038B5044622
:1036F0000268136923F44053C1680B431361836864
:103700000269134342691343C2691A430168CB68D3
:1037100023F4164323F00C031343CB600268536970
:1037200023F4407381690B4353610368314A934228
:1037300006D002F58062934202D0FFF72DFD01E032
:10374000FFF73AFDE369B3F5004F29D000210318D4
:1037500049411B1841F10001C90041EA5371DB00E6
:10376000181863684FEA83024FEA937341F100012E
:10377000FDF738FC204DA5FB00325109642303FB03
:1037800011031B013233A5FB03235B0903F0F00295
:1037900002EB011203F00F03216813448B6038BD64
:1037A0000023021843EB0301121841F10001C90084
:1037B00041EA5271D200101841F10001626892187A
:1037C0005B41FDF70FFC0C4DA5FB00325109642352
:1037D00003FB1103DB003233A5FB03235B095A0013
:1037E00002F4F87202EB011203F00703216813449C
:1037F0008B60D4E7001001401F85EB512DE9F043A9
:1038000083B005460E4617469946DDF828802C6899
:10381000246836EA04030CBF4FF0010C4FF0000C93
:10382000BC4528D1B8F1FF3FF1D0FEF78BFFA0EBEC
:103830000900404523D8B8F1000F22D02B68DA6880
:1038400012F0040FE3D0802EE1D0402EDFD01A68B2
:1038500012F0080FDBD0002401941A6801925B6813
:103860000193019B2846FFF7E2FE08236B6485F86D
:103870004040012000E0002003B0BDE8F0830320B9
:10388000FAE70320F8E760B310B5044690F841303A
:1038900013B3242384F841302268D36823F40053FF
:1038A000D3602046FFF722FF2268136923F4904378
:1038B00013612268536923F02A0353612268D36895
:1038C00043F40053D36000206064202384F8413027
:1038D00084F84230606310BD80F84030FEF72EF966
:1038E000D7E7012070472DE9F04182B01E4690F8DD
:1038F0004130DBB2202B56D104460D4690460029BC
:1039000055D00AB901204FE000234364212380F8F9
:103910004130FEF717FF0746A4F82480A4F826805C
:10392000A368B3F5805F02D04FF0000814E023696C
:103930002BB34FF000080FE0202384F84130032020
:1039400032E038F8023B2268C3F308035360E28C8C
:1039500092B2013A92B2E284E38C9BB293B10096A8
:103960003B46002280212046FFF748FF0028E3D194
:10397000002DE6D015F8012B23685A60E7E7A8462A
:103980000025E9E700963B46002240212046FFF74C
:1039900035FF18B9202384F8413005E0202384F84E
:1039A0004130032000E0022002B0BDE8F081012098
:1039B000FAE7704708B50168CA6822F04002CA6099
:1039C000202280F84120FFF7F4FF002008BD704757
:1039D000704708B5806B0023C385C384FFF7F8FFE9
:1039E00008BD704790F84230DBB2222B69D1836862
:1039F000B3F5805F4FD0826AB3F5805F04D0002BAF
:103A000056D10369002B53D103685B681370836A36
:103A100001338362C38D9BB2013B9BB2C385002BF4
:103A200051D100B583B00268D36823F02003D3607E
:103A30000268D36823F48073D3600268536923F06B
:103A400001035361202380F8423000234363036B5A
:103A5000012B33D100230363026802F10C0353E806
:103A6000003F23F010030C3242E800310029F3D16B
:103A700003681A6812F0100F06D0002201921A682B
:103A800001925B680193019B818DFFF7AAFF0020E3
:103A900003B05DF804FB0269002AACD1826A0368B6
:103AA0005B68C3F308031380836A02338362B1E760
:103AB00003685B6803F07F031370A8E7FFF787FFD5
:103AC000E5E70220704700207047000030B583B062
:103AD000044602681368D068516913F00F0505D1D8
:103AE00013F0200F02D010F0200F19D12DB111F0DA
:103AF000010119D110F4907F16D1216B01297DD0DD
:103B000013F0800F03D010F0800F40F0198113F0F4
:103B1000400F03D010F0400F40F0168103B030BDCD
:103B20002046FFF75FFFF9E713F0010F06D010F40E
:103B3000807F03D0626C42F00102626413F0040FD4
:103B400004D019B1626C42F00202626413F0020FF9
:103B500004D019B1626C42F00402626413F0080FE1
:103B600007D010F0200F00D119B1626C42F00802AA
:103B70006264626C002AD1D013F0200F02D010F0E2
:103B8000200F29D123685B6903F04003626C12F0B7
:103B9000080F00D163B32046FFF749FD23685B6936
:103BA00013F0400F20D0226802F1140353E8003FC5
:103BB00023F04003143242E800310029F3D1E36BD3
:103BC00073B1634A1A65E06BFEF78CFE0028A5D03E
:103BD000E06B036D9847A1E72046FFF703FFD1E7AD
:103BE0002046FFF7F5FE99E72046FFF7F1FE95E73F
:103BF0002046FFF7EDFE002363648FE713F0100FFC
:103C00003FF47EAF10F0100F3FF47AAF0023019322
:103C10001368019353680193019B536913F0400F9C
:103C200052D0E26B13685B689BB2002B3FF476AF17
:103C3000A18D99427FF672AFE385D369B3F5807F9A
:103C400037D0226802F10C0353E8003F23F480735D
:103C50000C3242E800310029F3D1226802F114034A
:103C600053E8003F23F00103143242E800310029F9
:103C7000F3D1226802F1140353E8003F23F040031C
:103C8000143242E800310029F3D1202384F8423075
:103C900000232363226802F10C0353E8003F23F062
:103CA00010030C3242E800310029F3D1E06BFEF73B
:103CB000CFFD02236363A18DE38D9BB2C91A89B244
:103CC0002046FFF78EFE29E7A18DE38D9BB2C91A2E
:103CD00089B2E38D9BB2002B3FF420AF00293FF463
:103CE0001DAF226802F10C0353E8003F23F49073E8
:103CF0000C3242E800300028F3D1226802F11403AC
:103D000053E8003F23F00103143242E8003000285A
:103D1000F3D1202384F8423000232363226802F188
:103D20000C0353E8003F23F010030C3242E800304C
:103D30000028F3D1022363632046FFF752FEEDE62D
:103D40002046FFF7A2FCE9E62046FFF733FEE5E652
:103D5000D339000838B505460C4600212A2000F06A
:103D600019F90220FEF7F4FC2946292000F012F987
:103D70000220FEF7EDFC2146642000F00BF9022042
:103D8000FEF7E6FC81212A2000F004F90A20FEF764
:103D9000DFFC38BD70B504460E46154601462820A6
:103DA00000F0F8F80220FEF7D3FC0A21292000F0E9
:103DB000F1F80220FEF7CCFC0121642000F0EAF8C3
:103DC0000220FEF7C5FC44F08001252000F0E2F857
:103DD0000220FEF7BDFC3146262000F0DBF8022071
:103DE000FEF7B6FC0321342000F0D4F80220FEF7E1
:103DF000AFFC0321672000F0CDF80220FEF7A8FCFD
:103E000081212A2000F0C6F80620FEF7A1FC45F02B
:103E10008001272000F0BEF80220FEF799FC70BD5B
:103E200010B50146322000F0B5F80A20FEF790FCEC
:103E30008021342000F0AEF80A20FEF789FC3520FE
:103E400000F0E4F804460021342000F0A3F80A2032
:103E5000FEF77EFC204610BD10B530216A2000F030
:103E600099F80A20FEF774FC0D21242000F092F846
:103E70000A20FEF76DFC0E21282000F08BF80A20A6
:103E8000FEF766FC8E21312000F084F80A20FEF750
:103E90005FFC01210B20FFF75DFF0A20FEF758FCB5
:103EA0000020FFF7BDFF102802D00124204610BDDE
:103EB00001210B20FFF74EFF0A20FEF749FC0021ED
:103EC0000A20FFF747FF0A20FFF7AAFF002841D189
:103ED0000A20FEF73DFC00210B20FFF73BFF0B20E3
:103EE000FFF79EFF0446B8BB0A20FEF731FC2421F1
:103EF0004120FFF72FFF4120FFF792FF242801D038
:103F00000424D3E70A20FEF723FCC0214220FFF758
:103F100021FF4220FFF784FFC02801D00524C5E718
:103F20000A20FEF715FC00212A2000F033F80A20B1
:103F3000FEF70EFC0021342000F02CF80A20FEF7DA
:103F400007FC062203210E20FFF724FF6420FEF762
:103F5000FFFBABE70224A9E70324A7E708B5014666
:103F60000622492000F078F808BD000008B50022BC
:103F700040210248FEF7C8FD08BD00BF0014024002
:103F800008B5012240210248FEF7BEFD08BD00BF72
:103F9000001402402DE9F04182B004460E46FFF7BE
:103FA000E5FF04F07F040E4D2C700E4F0E4C4FF0C9
:103FB0003708CDF8008001233A4629462046FFF70E
:103FC00014FA2E70CDF8008001233A462946204687
:103FD000FFF70BFAFFF7D4FF002002B0BDE8F08135
:103FE0005D0C00205C0C0020180B002008B5C100FF
:103FF00001F0F8011B20FFF7CDFF08BD08B5C10097
:1040000001F0F8011C20FFF7C5FF08BDF0B583B033
:104010000446FFF7ABFF0D4D64F07F042C700C4C91
:104020000C4E372700970123224629463046FFF7DA
:10403000DCF900970123224629463046FFF7D5F9DF
:10404000FFF79EFF207803B0F0BD00BF5D0C00209D
:104050005C0C0020180B00202DE9F04182B00446D2
:104060000D461646FFF782FF44F080000D490870A8
:104070000D4F38700D4C4FF03708CDF800800123FC
:104080000B4A2046FFF7B1F9CDF8008033462A46A7
:1040900039462046FFF7A9F9FFF772FF002002B06A
:1040A000BDE8F0815D0C002010000020180B0020FE
:1040B0005C0C00202DE9F04F89B04D4D0E222946B1
:1040C0003B20FFF7C9FF2A786B7843EA0223494C6B
:1040D0002380AA78EB7843EA022363802A796B79FC
:1040E00043EA0223A380AA79EB7943EA0223A3815E
:1040F0002A7A6B7A43EA0223628B9B1AE381AA7ABB
:10410000EB7A43EA0223A28B9B1A23822A7B6B7BE6
:1041100043EA0223E28B9B1A6382374D2846FFF75E
:104120001DFF2868C4F80600AB886381334F94E80C
:10413000070087E80700B4F90C00FCF739FD3049A7
:10414000FCF73EFE2F49FCF77FFCF860B4F90E0047
:10415000FCF72EFD2C49FCF733FE2C49FCF730FE12
:1041600005463861B4F91000FCF722FD2649FCF73A
:1041700027FE2649FCF724FE06467861B4F91200B2
:10418000FCF716FD2049FCF71BFE2049FCF718FE42
:104190008046B861B4F90270B4F904300793B4F9F9
:1041A0000690B4F908A0B4F90AB0B4F90000FCF71D
:1041B000FFFC04465846FCF7FBFC04905046FCF715
:1041C000F7FC03904846FCF7F3FC02900798FCF7D5
:1041D000EFFC01903846FCF7EBFC0090234642468A
:1041E00031462846FDF714FD09B0BDE8F08F00BF49
:1041F0002C0C00203C0C0020240C0020E40B0020A0
:104200005CEFA6430000A8416F128341333365423F
:1042100038B5002534E0324C0E2221463B20FFF712
:104220001BFF2378627842EA03222E4B998A0A44C4
:104230009A82A178E27842EA0122D98A0A44DA8293
:104240002179627942EA0122198B0A441A83217A80
:10425000627A42EA0122598B0A445A83A17AE27AAD
:1042600042EA0122998B0A449A83217B627B42EACB
:104270000122D98B0A44DA830520FEF769FA013559
:10428000B5F5967FC7DB174BB3F91410164A82FBBE
:104290000140C917C1EB60119982B3F9161082FB76
:1042A0000140C917C1EB6011D982B3F9181082FB24
:1042B0000140C917C1EB60111983B3F91A1082FBD1
:1042C0000140C917C1EB6011598300219983B3F9EB
:1042D0001E1082FB0102C917C1EB6212DA8338BDDE
:1042E0002C0C00203C0C0020B5814E1B10B586B074
:1042F0006420FEF72DFA7520FFF788FE224B187018
:1043000000240194029403940494059448F26B03EE
:10431000ADF8043040F26B33ADF806306C23ADF8E5
:10432000083040F21A43ADF80A3041F61B03ADF8ED
:104330000C3041F21C03ADF80E3040F21D23ADF8F5
:10434000103042F26A03ADF812300DE006AB03EB19
:10435000440313F8131C13F8140CFFF71BFE012081
:10436000FEF7F6F90134E4B2092CEFD90320FFF788
:104370003DFE0220FFF742FEFFF76EFDFFF748FF0C
:10438000002006B010BD00BFE00B00202DE9F04F6B
:1043900083B0CDE90001DFF878A0DAE90089DFF821
:1043A00074B0DBE90001FBF731FF04460D4602461D
:1043B0000B46DDE90C01FBF729FF02460B462046C0
:1043C0002946FCF703FA06460F4642464B46DDE90E
:1043D0000001FBF719FF32463B46FCF7CDF8424699
:1043E0004B46FBF713FF8046894632463B4600208A
:1043F0000949FBF709FF22462B46FCF7BDF8CBE93C
:104400000001CAE900894046494603B0BDE8F08F83
:10441000680C0020600C00200000F03F014B186881
:10442000704700BF2000002070B50D4E0D4D761B6B
:10443000B61006D0002455F8043B01349847A64234
:10444000F9D1094E094D761B06F00AFDB61006D0CB
:10445000002455F8043B01349847A642F9D170BDB9
:1044600038B3000838B3000840B3000838B3000878
:10447000830730B548D0541E002A3FD0CAB2034645
:1044800001E0013C3AD303F8012B9D07F9D1032C3D
:104490002DD9CDB245EA05250F2C45EA054536D97B
:1044A000A4F1100222F00F0C03F1200EE6444FEAB3
:1044B000121C03F1100242E9045542E90255103280
:1044C0007245F8D10CF1010214F00C0F03EB02124B
:1044D00004F00F0C13D0ACF1040323F003030433F6
:1044E000134442F8045B9342FBD10CF003042CB15B
:1044F000CAB21C4403F8012B9C42FBD130BD644678
:104500001346002CF4D1F9E703461446BFE71A46D8
:10451000A446E0E70EB410B59DB06FF000411FABAC
:10452000CDE906010491094953F8042B0290084C87
:104530000868019302A9059400F00CF8029B002280
:104540001A701DB0BDE8104003B070472000002075
:104550000802FFFF2DE9F04FD5B00C460C919146B3
:104560000E930A9002F086FE036817931846FCF734
:10457000C7FFA3891690190603D52369002B00F005
:104580008B8700242BAB4D46CDE92944CDE9194456
:10459000CDE91B441294289398461894002308945C
:1045A0000024CDE914342B78002B00F0DD81AA46DD
:1045B00004E01AF8013F002B00F01681252BF8D1FA
:1045C000BAEB050640F014819AF80030002B00F099
:1045D000CB8100234FF0FF329AF801608DF88330D1
:1045E00009930AF1010A07921F462B244FF0200974
:1045F0000AF1010AA6F120035A2B00F22D81DFE80F
:1046000013F0BA022B012B01B5022B012B012B0158
:104610006A002B012B014F02E3022B015A02C9024F
:104620002B01C4025B005B005B005B005B005B0076
:104630005B005B005B002B012B012B012B012B018D
:104640002B012B01BF012B011A028600BF01BF0104
:10465000BF012B012B012B012B01B0022B012B01E0
:10466000C3002B012B012B0124022B015F022B0124
:104670002B013C072B012B012B012B012B012B01C3
:104680002B012B01BF012B011A028800BF01BF01C2
:10469000BF01A302880081002B0196022B01820238
:1046A000C500700281002B0124027E0039072B0116
:1046B0002B0119072B017E00A6F1300300221AF806
:1046C000016B02EB820203EB4202A6F13003092BDD
:1046D000F5D909928EE7DDF828B0584602F0CAFDF8
:1046E00043681B931846FCF70BFF1C900646584680
:1046F00002F0C0FD83681993002E40F07A869AF884
:10470000006075E79AF8006047F0200770E747F00F
:104710001007BA060E9B40F18081073323F0070390
:104720001A465B6852F8084B0E929946002BC0F26D
:104730005F85079B013301F01F8054EA090327F0CE
:10474000800B00F0E3840A2C79F1000380F081876C
:10475000303401238DF84F415F460B930DF24F1516
:1047600007990B989DF8832081424FF00003B8BF52
:1047700001460D9306910F9313931093002A7CD05A
:10478000069B0133069378E047F0100717F02009E5
:1047900000F034810E9B073323F00703D3F8049015
:1047A00053F8084B0E9327F4806B002300228DF8FA
:1047B0008320079A511C00F00D8254EA09012BF066
:1047C000800740F00682002A41F01080002B40F064
:1047D000A2841BF001030B9300F0378530238DF882
:1047E0004F310DF24F15BBE7BAEB050600F0BC8068
:1047F0002A9B33442A93299B0133072BC8E900568F
:10480000299305DC08F10808089B33440893DBE68C
:104810000C990A9828AA03F01BFC80B90DF1AC088A
:10482000F2E70C990A9828AA03F012FC002800F07D
:104830008C800D9B1BB10D990A9802F015FC0C9B06
:104840009B8913F0400F089B18BF4FF0FF3308936C
:10485000089855B0BDE8F08F002E00F0858000224A
:104860008DF8EC608DF88320012306930D920B9355
:1048700007920F92139210923BAD17F0020302D0F1
:1048800006990231069117F0840B07D10999069811
:10489000A1EB0009B9F1000F00F315832A9C8AB13E
:1048A000299A0DF1830101320134C8F80010072A5A
:1048B0004FF001012A942992C8F8041000F34683AE
:1048C00008F1080883B1299B21AA01330234C8F8F2
:1048D0000020072B4FF002022A942993C8F80420E5
:1048E00000F3488308F10808BBF1800F00F00E8246
:1048F000079B0B9AA3EB020BBBF1000F00F34F8257
:10490000FB0500F1A5810B9BC8F804301C44299BD2
:10491000C8F800500133072B2A94299300F3C7826B
:1049200008F108087B0705D5099B069A9D1A002DFA
:1049300000F32C83DDE9083206998A42ACBF9B184C
:104940005B180893002C7FF46CAF002329930D9B18
:104950001BB10D990A9802F087FB0DF1AC08554682
:104960002B78002B7FF423AE2A9B002B3FF467AFFC
:104970000C9C0A9828AA214603F06AFBA38960E7E9
:104980000E9B073323F00702F2E80234CDE914341A
:10499000DDE9143424F000440E929946184621466D
:1049A000A74B4FF0FF32FCF7A1FE002840F06284D5
:1049B000A34B484621464FF0FF32FCF779FE002812
:1049C00040F05884DDE9140100220023FCF766FE64
:1049D000002840F0AD879DF883209A4D9A4B27F030
:1049E00080070321472EC8BF1D4600230D93069163
:1049F0000B9107930F9313931093BFE617F01003D7
:104A000040F02E8417F0400200F054870E9A52F8BE
:104A1000044B0E929946A4B2C5E653F8044B0E938C
:104A2000FB0600F118847D0640F1128444F3C0397E
:104A30004B4624B27AE60E9B002253F8041B8DF8F5
:104A400083208DF8EC100E930EE70E9C079B54F814
:104A5000045B4FF000098DF88390002D00F0D5869F
:104A60005A1C00F052851A4649462846FCF740FC7D
:104A70000D90002801F057800D9BCDF81C905B1B1A
:104A80000B930E9423EAE3739DF883200693CDF8ED
:104A90003490CDF83C90CDF84C90CDF840906DE638
:104AA0000E9B53F8042B0992002A80F2C983099ABD
:104AB0000E93524209929AF8006047F0040797E576
:104AC00047F0100B1BF0200900F081830E9B073389
:104AD00023F00703D3F8049053F8084B0E930123F7
:104AE00064E60E9B53F8044B0E93302378268DF822
:104AF0008430564B189347F0020B8DF885604FF0C9
:104B00000009022352E6BD0600F18284FC0600F192
:104B10007386780600F13C87B90540F16D860E9BDF
:104B2000089953F8042B0E931170554618E79AF81C
:104B300000606C2E03BF9AF8016047F020070AF16D
:104B4000010A47F0100753E59AF80060682E03BF8A
:104B50009AF8016047F400770AF1010A47F040072C
:104B600046E59AF8006047F0080741E59AF80060CA
:104B700047F001073CE59DF88330002B7FF4BFAD83
:104B80009AF800608DF8839032E59AF8006047F05B
:104B900080072DE5524612F8016B2A2E01F0CD81D7
:104BA000A6F13003092B924698BF002201F28880BB
:104BB0001AF8016B02EB820203EB4202A6F130030A
:104BC000092BF5D9079215E59AF800608DF8834016
:104BD0000EE5BB46012B3FF4B6AD022B54AD12D10E
:104BE000189A04F00F032409D35C05F8013D44EA48
:104BF00009744FEA191954EA0903F2D154AB5B1B4B
:104C00005F460B93ACE504F00703E40844EA4974FB
:104C10004FEAD909303354EA09012A4605F8013D23
:104C2000F1D11BF0010FE9D0302BE7D03023023A4D
:104C300005F8013C54AB9B1A5F460B9315468FE574
:104C4000FFFFEF7FC4AE0008C8AE0008D4AE000876
:104C5000652E40F3E680DDE9140100220023FCF715
:104C600013FD002800F0CD81299BBF4AC8F8002021
:104C7000013301340122072B2A942993C8F8042018
:104C800000F37D8508F10808229B129A934280F276
:104C9000D382169B179A1C44C8E90023299B2A94A7
:104CA0000133072B299300F3EB8308F10808129BCB
:104CB0005D1E002D7FF736AE102D299BDFF8AC92DC
:104CC00040F36E8549462246B946DDF828B00C9C73
:104CD00010260F4605E008F10808103D102D40F39E
:104CE0005B8501331032072BC8E90076CDE9293204
:104CF000F1DD28AA2146584603F0AAF900287FF4DE
:104D000098ADDDE929320DF1AC08E6E7099B069A7A
:104D1000A3EB020BBBF1000F7FF7EAADBBF1100F65
:104D2000299ADFF848922CDD1D9621464E460C9CB0
:104D3000DDF82890102306E0ABF1100BBBF1100F4B
:104D400008F108081ADD01321031072AC8E90063AA
:104D5000CDE92921F0DD28AA214648460DF1AC080D
:104D600003F076F900287FF464ADABF1100BBBF1D2
:104D7000100FDDE929214FF01003E4DCB1461D9E40
:104D80000C4601325C44072ACDE92924C8F800907A
:104D9000C8F804B000F31D8508F10808A8E5BBF1C8
:104DA000100F299ADFF8C4912DDD41462046A84610
:104DB0004C460C9DDDF82890102306E0ABF1100B5B
:104DC000BBF1100F01F1080119DD01321030072A83
:104DD000C1E90043CDE92920F0DD28AA294648464B
:104DE00003F036F900287FF424ADABF1100BBBF1D2
:104DF000100FDDE929202BA94FF01003E5DC454613
:104E0000A1468846044601325C44072ACDE929249C
:104E1000C8F80090C8F804B000F3CC8108F1080885
:104E20006EE5129B012B40F37C81299EC8F800504F
:104E3000013601340123072E2A942996C8F804303C
:104E400000F3E08108F10808169B179A01361C440C
:104E5000072EC8E90023CDE9296400F3E08108F1B9
:104E60000808DDE9140100220023FCF70DFC0028EE
:104E700040F07481129B0136013B01351C44072E22
:104E8000C8F800502996C8F804302A9400F35981D4
:104E900008F108081A9BC8F8043001361C44072E94
:104EA00024ABCDE92964C8F800307FF739AD0C99FF
:104EB0000A9828AA03F0CCF800287FF4BAAC2A9C00
:104EC0000DF1AC082EE5B9F1100FDDE929212BDD3C
:104ED000CDE91D3B1F96DDF828B04E461024A946AB
:104EE0000C9D04E0103E102E08F1080817DD013279
:104EF0001F4B1031072AC8E90034CDE92921F1DD23
:104F000028AA294658460DF1AC0803F0A1F800285C
:104F10007FF48FAC103E102EDDE92921E7DCDDE9BE
:104F20001D3B4D46B1461F9EC8F80490013209EB67
:104F30000104072A0E49C8F80010CDE9292400F31E
:104F4000FF839DF8832008F10808A8E40C990A98CB
:104F50001D9328AA03F07CF800287FF46AAC2A9CF1
:104F60001D9B0DF1AC08ADE404AF000818AF0008BC
:104F700008AF00080C990A9828AA03F069F80028DD
:104F80007FF457AC2A9C0DF1AC08ADE4102D299BA1
:104F900021DD0A9FDDF83090102604E0103D102D31
:104FA00008F1080817DD0133B04A1034072BC8E9AF
:104FB0000026CDE92934F1DD28AA494638460DF10D
:104FC000AC0803F045F800287FF433AC103D102DF9
:104FD000DDE92934E7DC0133A44AC8F804502C4445
:104FE000072BCDE92934C8F800207FF7A3AC0C9932
:104FF0000A9828AA03F02CF800287FF41AAC2A9CFF
:1050000098E42299002940F36683DDF84090129BD2
:105010009945A8BF9946B9F1000F0BDD299B0133D3
:105020004C44072BC8E900592A94299300F32F8593
:1050300008F10808109EB9F1000FA8BFA6EB0906F9
:10504000002E00F33882DDF840B07805AB4400F163
:105050006682229B129A934202DBF90740F18E840A
:10506000169A17991444C8E90012299A2A94013211
:10507000072A299200F3188508F10808129AAE1839
:10508000A6EB0B06D51AAE42A8BF2E46002E0DDDAC
:10509000299BC8F800B001333444072BC8F80460DA
:1050A0002A94299300F31A8608F10808002EA8BF55
:1050B000AD1B002D7FF736AC102D299BDFF8B0918A
:1050C00040F36E8349462246B946DDF828B00C9C71
:1050D00010260F4605E008F10808103D102D40F39A
:1050E0005B8301331032072BC8E90076CDE9293202
:1050F000F1DD28AA2146584602F0AAFF00287FF4D5
:1051000098ABDDE929320DF1AC08E6E7079B002BEF
:105110007FF41EAB5F46002307930B9354ADFFF75C
:105120001FBBFA073FF581AE299EC8F80050013633
:1051300001340123072E2A942996C8F804307FF7FA
:10514000A7AE0C990A9828AA02F082FF00287FF4E3
:1051500070ABDDE929640DF1AC089BE6129B5D1E86
:10516000002D7FF797AE102DDFF8049140F3968362
:10517000224607970A9C0C9F4FF0100B05E008F1A0
:105180000808103D102D40F3878301361032072E9A
:10519000C8E9009BCDE92962F1DD28AA39462046FD
:1051A00002F056FF00287FF444ABDDE929620DF1DF
:1051B000AC08E6E70C990A9828AA02F049FF0028F3
:1051C0007FF437AB2A9C0DF1AC08FFF799BB1BF0BD
:1051D000100340F028811BF0400200F079830E9A02
:1051E00052F8044B0E929946A4B20123FFF7DEBA9F
:1051F0002D2364428DF8833069EB4909BB460123B6
:10520000FFF7D7BA0C990A9828AA02F021FF0028C4
:105210007FF40FABDDE929640DF1AC0814E60C99BD
:105220000A9828AA02F014FF00287FF402ABDDE9F7
:1052300029640DF1AC0814E6FD077FF573AB28E592
:105240009AF800600E93FFF7D3B954ADFFF788BA10
:10525000B80500F1A6834FEAE4794B46FFF766BA3A
:105260000E9B53F8044B0E93FFF79DBA08AF00084E
:1052700018AF0008DDE9140102460B46FCF736FAC8
:10528000002840F00F86612E00F04585412E00F089
:105290006D84079B013326F02003069300F0A98359
:1052A000472B00F08885DDE9141247F480730F93D3
:1052B0001346002BC0F292850B9300231D938B465F
:1052C0000D93069B462B00F0FD83452B00F0448593
:1052D0000799019126A9049123A9039122A902917A
:1052E00002210B9B0A9800915A4600F0F5FE069B9E
:1052F000472B054640F0318617F0010FB9460F9F46
:1053000040F0FC84269B5B1B1293069B472B00F00E
:105310008283069B462B00F01284229B1093109BE5
:10532000069A013B412A229300F0AD85F2B200219A
:10533000002BB8BF109B8DF89020BABFC3F10103BA
:105340002D222B22092B8DF8912040F38D850DF114
:105350009F04B64F2246104687FB0321DA17C2EBA3
:10536000A10202EB8201A3EB4101303100F8011CE4
:1053700019466329134600F1FF32ECDC3033D9B211
:10538000831E9C4202F8011C40F2F18513460DF188
:10539000920201E013F8011B02F8011B9C42F9D1B3
:1053A0000DF1A1030DF192021B1A134424AA9B1ABA
:1053B0001A93129B1A9A012B1A440B9240F39E8562
:1053C0000B9B169A13440B930B9A002329F48067C6
:1053D00022EAE27247F480770F93069213931093B8
:1053E0001D9B002B40F03F839DF883200793FFF720
:1053F000C5B9199B002B3FF482A9199B1B78002B80
:105400003FF47DA99AF8006047F48067FFF7F0B891
:105410000E9B089853F8041B0E93C217C1E90002B3
:105420005546FFF79DBA0E9B53F8044B0E9301238C
:10543000FFF7BCB97E4B189317F0200900F0EC8001
:105440000E9B073323F00703D3F8049053F8084B5F
:105450000E93F80709D554EA090306D030238DF8D6
:10546000856047F002078DF8843027F4806B0223B3
:10547000FFF79CB9BB46FFF725BB6E4B1893DBE7E4
:105480000C990A9828AA02F0E3FD00287FF4D1A91C
:105490002A9C0DF1AC080AE40A98402101F0F6FEBE
:1054A0000C9B18601861002800F065850C9A402359
:1054B0005361FFF766B8102E299BDFF87C9140F30B
:1054C0002982484642462146A846B9460A9C0C9D78
:1054D0004FF0100B074604E00832103E102E40F348
:1054E000138201331031072BC2E9007BCDE929314A
:1054F000F2DD28AA2946204602F0AAFD00287FF402
:1055000098A9DDE929312BAAE7E72846CDF81C90B8
:105510000E94FBF7F5FF03460B90FFF7B3BA129B0F
:10552000CDF82CA04246DDF84C801097EB1807937D
:105530005E46199FDDF87090DDF828A0DDF830B0E8
:105540000F9B13952146B8F1000F2FD0002B30D1BF
:10555000013F08F1FF381B9BC2E90039299B013349
:105560004944072B2A91299368DC0832079B387835
:105570009B1B8342A8BF0346002B1C460BDD2998CA
:10558000013019440728C2E900632A91299000F3E9
:10559000148138780832002CACBF051B0546002D5D
:1055A0000BDC06440F9BB8F1000FCFD1002B00F0AD
:1055B00023820F9B013B0F93CDE7102D29981DDD12
:1055C000102404E0103D102D02F1080216DD013018
:1055D000194B10310728C2E90034CDE92901F1DD6A
:1055E00028AA5946504602F033FD00287FF421A92D
:1055F000103D102DDDE929012BAAE8DC01300E4B0E
:10560000556029440728CDE92901136000F332824F
:10561000387808320644C5E717F0100300F0A1807F
:105620000E9B53F8044B0E9313E700BF6766666644
:10563000D4AE0008E8AE000818AF000828AA594602
:10564000504602F005FD00287FF4F3A82A992BAA02
:105650008CE70BF4806300220696CDF82CA0CDF8E1
:10566000348054AFDDF864809A4616460CE000237F
:10567000204649460A22FBF7B5FC0A2C79F10003C3
:105680001BD3044689462F4620460A22002349465A
:10569000FBF7A8FC30327D1E013607F8012CBAF169
:1056A000000FE4D098F800309E42E0D1FF2EDED00B
:1056B0000A2C79F1000380F0408154AB5B1BDDF8CC
:1056C0002CA0CDF864801296DDF83480069E0B93F2
:1056D0005F46FFF745B8299BBC4AC8F80020013354
:1056E00001340122072B2A942993C8F8042000F3DF
:1056F000388108F10808002940F09780129A07F0D5
:10570000010313433FF40EA9169B17991A19C8E910
:105710000013299B2A920133072B299300F3478119
:1057200008F108081299C8F8005001338C18072BAB
:10573000CDE92934C8F804107FF7F2A8FFF7B7BB0A
:105740000C990A981D9328AA02F082FC00287FF485
:1057500070A89DF883202A9C1D9B0DF1AC08FFF7D3
:105760009EB817F0400200F0C2800E9A52F8044B27
:105770000E929946A4B26CE6BB46FEF7E4BF0C99C4
:105780000A9828AA02F064FC00287FF452A82A9CF8
:105790000DF1AC08FFF778BA14463A464F469146E9
:1057A00001332C44072BC8F80090C8F80450CDE909
:1057B00029347FF7B5A8FFF77ABB28AA5946504687
:1057C00002F046FC00287FF434A838782A992BAAE6
:1057D000E1E60C990A9828AA02F03AFC00287FF426
:1057E00028A82A9C0DF1AC08FFF782B8012BBB4614
:1057F0007FF4F3A9FEF7ACBF0E9B089953F8042B76
:10580000554611600E93FFF7ABB8062B294628BF0B
:10581000062307950D952A4606936D4D0E940B931E
:105820000F9113911091FEF7A9BF169B17981A19A3
:10583000C8E90003299B2A920133072B299300F31F
:10584000B68008F108080029BFF66CAF4E4210314F
:10585000DFF8809180F297824146DDF828B0A846B3
:1058600010240C9D04E00831103E102E40F3898274
:1058700001331032072BC1E90094CDE92932F2DD62
:1058800028AA2946584602F0E3FB00287EF4D1AF4F
:10589000DDE929322BA9E7E7079F144601362C449E
:1058A000072ECDE92964C8F80090C8F804507FF7A6
:1058B000EFAA46E40E9B17F4007914BF53F8044B8B
:1058C00053F8044B0E931CBF9146E4B2FEF76BBF36
:1058D0000E9B1BF4007914BF53F8044B53F8044B90
:1058E0000E931CBF9146E4B20123FEF75FBF0E9BEF
:1058F00017F4007914BF53F8044B53F8044B0E937C
:105900001CBF9146E4B2A4E5454690463A460C4693
:105910004F46914601333444072BCDE92934C8F86A
:105920000090C8F8046057DC08F10808FFF78BBB4B
:105930002D228DF88320FFF750B81C9B1B99ED1A80
:105940001A46284602F052FB98F801300BB108F1D4
:105950000108204649460A2200230026FBF742FBA5
:105960008FE60C990A9828AA02F072FB00287EF4B0
:1059700060AF22992A9C0DF1AC08BCE6129AAE18D1
:10598000A6EB0B06D51AAE42A8BF2E46FFF78EBB7C
:105990000E9B089953F8042B0E9311805546FEF781
:1059A000DFBF44F3C0194B4664B2FEF7BFBE0C998B
:1059B0000A9828AA02F04CFB00287EF43AAFDDE9F1
:1059C000293222990DF1AC083DE700BF04AF000871
:1059D000FCAE000818AF00080C990A9828AA02F03B
:1059E00037FB00287EF425AF2A9C0DF1AC08FFF7A9
:1059F0002ABB0623079356E4DDE91235EB189E42D5
:105A00001997B346DDF82CA0109F90460C4628BF8E
:105A10009B46FFF71EBB229B1093DA1C02DB079A02
:105A2000934204DD023E26F02003069377E4109BA8
:105A3000129A9342C0F2488119F0010F00F01182CE
:105A4000169A13440B9319F4806F03D0109B002B0C
:105A500000F3C7810B9B23EAE373069367260023B9
:105A60000F931393BCE42D2200238DF8832007931A
:105A7000FEF786BE28AA5946504602F0E9FA0028E9
:105A80007EF4D7AE38782A992BAA06448AE50C9979
:105A90000A9828AA02F0DCFA00287EF4CAAE2A9CF2
:105AA0000DF1AC08FFF7C6BA0C990A9828AA02F0C3
:105AB000CFFA00287EF4BDAE229B2A9C0DF1AC08E3
:105AC000FFF7DCBA0799019126A9049123A9039154
:105AD00022A9029103210B9B0A9800915A4600F0DB
:105AE000FBFA0378302B054600F0F181229B079AE0
